:030000000208E112
:0C08E100787FE4F6D8FD75811B02092821
:1009840007104452554E4B202008084E4F524D41FB
:030994004C2020D4
:0C096D002519F8E6F590C2B47FDC7E0589
:0B097900EF1FAC0670011E4C70F62250
:10080000438001C2B2C2B3D2B4120975759001120D
:100810000973D2B4759003120973D2B4759006129D
:100820000973D2B4759038120973D2B475900E1250
:100830000973D2B4C2B2759080120973D2B4D2B720
:10084000D2B620B5FDC2B6C2B785A017E517C394CE
:100850007F5022C2B2759085120973D2B412097505
:10086000E4F519D2B2740812096DD2B40519E5196C
:10087000C3940740EEE517D3947F4022C2B275902F
:1008800085120973D2B4120975E4F519D2B2741045
:1008900012096DD2B40519E519C3940740EEE517A6
:1008A00075F06484F518E51775F06484E5F075F06B
:1008B0000A84F51BE51775F00A8485F01AD2B2E5B3
:1008C000182430120971D2B4D2B2E51B24301209B7
:1008D00071D2B4D2B2E51A2430120971D2B402082E
:0108E0003ED9
:1008ED00020800E493A3F8E493A34003F68001F219
:1008FD0008DFF48029E493A3F85407240CC8C3330C
:10090D00C4540F4420C8834004F456800146F6DFDA
:10091D00E4800B0102040810204080900984E47EDD
:10092D00019360BCA3FF543F30E509541FFEE493CF
:10093D00A360010ECF54C025E060A840B8E493A396
:10094D00FAE493A3F8E493A3C8C582C8CAC583CAC1
:10095D00F0A3C8C582C8CAC583CADFE9DEE780BE79
:01099700005F
:00000001FF
